:020000040800F2
:10000000F0180020490100089D08000811020008AE
:1000100099080008C9040008E92100080000000050
:10002000000000000000000000000000311800087F
:10003000CD040008000000009B0100081D19000805
:100040006301000863010008630100086301000800
:1000500063010008630100086301000863010008F0
:1000600063010008630100086301000863010008E0
:1000700063010008630100086301000863010008D0
:1000800063010008630100086301000863010008C0
:1000900063010008630100086301000863010008B0
:1000A00063010008630100086301000863010008A0
:1000B0006301000863010008630100086301000890
:1000C0006301000863010008630100086301000880
:1000D000630100088D190008E9190008451A000895
:1000E0006301000863010008630100086301000860
:1000F0006301000863010008630100086301000850
:10010000630100086301000863010008630100083F
:10011000630100086301000863010008630100082F
:10012000630100086301000863010008630100081F
:10013000DFF810D000F02AF900480047915F00086E
:10014000AFF30080F01800200648804706480047BB
:10015000FEE7FEE7FEE7FEE7FEE7FEE7FEE7FEE777
:10016000FEE7FEE72D19000831010008EFF31080CB
:1001700072B6704780F310887047314A1368012BBC
:1001800004D04FF0010313602E4A10602E4A116014
:100190002E484FF0805101607047EFF3108272B625
:1001A0002748016891B14FF00001016025480168BE
:1001B00029B1EFF3098121E9F00F006801602249BC
:1001C00009680968B1E8F00F81F3098882F31088A3
:1001D0004EF0040E70471C4908601A494FF00000A9
:1001E000086017494FF00100086019484FF47F017B
:1001F000D0F8002041EA0201016014484FF080511C
:10020000016014480068006880F3088862B670478F
:100210001EF0040F14BFEFF30880EFF3098020E90C
:10022000F00F40F804ED14BF80F3088880F30988CC
:1002300000B507F081FC5DF804EB4EF0040E70474A
:1002400030000020280000202C00002004ED00E0F9
:1002500020ED00E008ED00E040EA01039B0703D039
:1002600009E008C9121F08C0042AFAD203E011F8F5
:10027000013B00F8013B521EF9D27047D2B201E0B7
:1002800000F8012B491EFBD270470022F6E710B59B
:1002900013460A4604461946FFF7F0FF204610BDF4
:1002A00010B5044604E00B7800F8013B03B1491C8B
:1002B000521EF8D2204610BD421C10F8011B002926
:1002C000FBD1801A704710B5002200E0521C835CFD
:1002D0008C5CA34201D1002BF8D1D8B2E1B2401A14
:1002E00010BD30B505460020034600E05B1C93427C
:1002F00005D2EC5CC85C201A01D1002CF6D130BDCF
:1003000070B5064601F072FF046805460A22002116
:10031000304600F002F82C6070BD2DE9F0479146A0
:100320000F4680460446002614F8015B2DB100F00C
:100330003FF80068405DC007F6D12B2D02D02D2D6F
:1003400018D0641E4A463946204600F035F827B1D9
:100350003968A14201D1C7F8008071054FF002044D
:100360000BD54042002803DD01F040FF0460A007E8
:10037000BDE8F08746F48066E4E70028F8DA01F08B
:1003800035FF04606FF00040F2E70000064C074DB7
:1003900006E0E06840F0010394E807009847103455
:1003A000AC42F6D3FFF7C8FE14C3000834C30008FC
:1003B0000048704794BE00082DE9F05F824600783F
:1003C000002715468B460AF10104B946302801D0B2
:1003D0009DB113E014F8010B0127782803D05828A9
:1003E00001D045B10AE00DB1102D07D1002710252D
:1003F00014F8010B02E0082500E00A250026B046AB
:100400000EE005FB080005FB06F1012701EB104695
:100410001FFA80F8B6F5803F00D3B94614F8010BF7
:10042000294600F018F80028EBDABBF1000F05D0E0
:100430000FB1641E00E05446CBF80040B9F1000F44
:1004400006D001F0D3FE02210160C81EBDE8F09F76
:1004500048EA0640FAE73A2800D2303820F0200275
:10046000412A01D3A2F13700884201D34FF0FF3077
:10047000704770B58C1810F8015B15F0070301D1B7
:1004800010F8013B2A1106D110F8012B03E010F8F7
:10049000016B01F8016B5B1EF9D12B0705D400231A
:1004A000521E0DD401F8013BFAE710F8013BCB1ABC
:1004B000921C03E013F8015B01F8015B521EF9D5B1
:1004C000A142D8D3002070BD00BFFEE770470000F6
:1004D00008B502208DF8020004208DF80300000208
:1004E000ADF8000069461C4800F03AF818208DF875
:1004F00003004FF40070ADF800006946164800F0A4
:100500002FF804208DF803000820ADF8000069469C
:10051000114800F025F818208DF803000420ADF8EC
:10052000000069460C4800F01BF804208DF8030019
:100530004002ADF800006946084800F011F81820A4
:100540008DF803004FF48060ADF800006946034861
:1005500000F006F808BD000000080140000C014052
:100560002DE9F05F05460C464FF00009CA4600260B
:100570000027B046B3465948854211D058488542B5
:100580000ED0584885420BD05748854208D057486E
:10059000854205D05648854202D05648854200D152
:1005A00003E0B22154A002F077FDE078A0B1E0783A
:1005B000042811D0E07828280ED0E07848280BD005
:1005C000E078142808D0E078102805D0E0781C28BE
:1005D00002D0E078182800D103E0B32146A002F051
:1005E0005BFD002010B9208800B103E0B42142A0D7
:1005F00002F052FDE07800F00F09E07800F0100002
:1006000080B1A078012805D0A078022802D0A07877
:10061000032800D103E0BB2137A002F03DFDA07804
:1006200040EA0909207838B3D5F8008000261FE099
:10063000012000FA06F7208800EA070ABA4516D119
:10064000B7000F2000FA07FB28EA0B0809FA07F0A9
:1006500040EA0808E078282803D10120B04068610A
:1006600005E0E078482802D10120B0402861761CDE
:10067000082EDDD3C5F800802088FF282BDDD5F8B3
:100680000480002623E006F10800012101FA00F7AA
:10069000208800EA070ABA4518D1B7000F2000FAEF
:1006A00007FB28EA0B0809FA07F040EA0808E07897
:1006B000282803D106F1080081406961E0784828C4
:1006C00004D106F10800012181402961761C082E21
:1006D000D9D3C5F80480BDE8F09F000000080140B0
:1006E000000C0140001001400014014000180140BE
:1006F000001C0140002001406273705C4C69627212
:1007000061726965735C53544D3332463130785FA2
:100710005374645065726970685F4472697665727B
:100720005C7372635C73746D3332663130785F670B
:1007300070696F2E6300000070B504460D461348C3
:10074000844211D0124884420ED0124884420BD009
:100750001148844208D01148844205D01048844290
:1007600002D01048844200D104E040F279110EA07A
:1007700002F092FC002008B905B104E04FF4BD710D
:1007800009A002F089FC656170BD0000000801400D
:10079000000C01400010014000140140001801400D
:1007A000001C0140002001406273705C4C69627261
:1007B00061726965735C53544D3332463130785FF2
:1007C0005374645065726970685F447269766572CB
:1007D0005C7372635C73746D3332663130785F675B
:1007E00070696F2E6300000070B504460D46134813
:1007F000844211D0124884420ED0124884420BD059
:100800001148844208D01148844205D010488442DF
:1008100002D01048844200D104E040F269110EA0D9
:1008200002F03AFC002008B905B104E04FF4B571BC
:1008300009A002F031FC256170BD000000080140F4
:10084000000C01400010014000140140001801405C
:10085000001C0140002001406273705C4C696272B0
:1008600061726965735C53544D3332463130785F41
:100870005374645065726970685F4472697665721A
:100880005C7372635C73746D3332663130785F67AA
:1008900070696F2E6300000000BFFEE7704710B55F
:1008A00000214FF0006000F083F810BD38B5044619
:1008B00020798DF8000000208DF801008DF80200ED
:1008C00001208DF80300684600F002F838BD0000F2
:1008D0002DE9F0410446002500270F26E07810B1ED
:1008E000E078012800D103E0752121A002F0D4FBBB
:1008F0006078102800DA03E076211DA002F0CCFB1E
:10090000A078102800DA03E0772119A002F0C4FBD8
:10091000E07800B32348006800F4E060C0F5E060D0
:10092000050AC5F10407EE40607800FA07F5A078E3
:10093000304005432D011C4822788554207800F072
:100940001F010120884021784911890001F1E0212F
:10095000C1F8000109E0207800F01F010120884063
:1009600012492278521141F82200BDE8F0810000BE
:100970006273705C4C69627261726965735C535436
:100980004D3332463130785F53746450657269700C
:10099000685F4472697665725C7372635C6D6973DB
:1009A000632E63000CED00E000E400E080E100E075
:1009B00070B504460D46B4F1005F02D0B4F1006F8B
:1009C00000D103E09F2109A002F066FB1448854294
:1009D00000D203E0A02105A002F05EFB114905EA68
:1009E000010020431049086070BD00006273705C14
:1009F0004C69627261726965735C53544D3332465F
:100A00003130785F5374645065726970685F447206
:100A1000697665725C7372635C6D6973632E6300E3
:100A2000FFFF0F0080FFFF1F08ED00E000BF0A4836
:100A3000006810F8080C0849096811F8041C0844FB
:100A40000549096801F8080C03480068001F0249BD
:100A5000086000BF704700009401002000BF0A48F2
:100A6000006850F8080C0849096851F8041C08444B
:100A70000549096841F8080C03480068001F02494D
:100A8000086000BF704700009401002000BF0A48C2
:100A9000006830F8080C0849096831F8041C08445B
:100AA00000B20549096821F8080C03480068001FD6
:100AB0000149086000BF70479401002000BF0A4848
:100AC000006810F8080C0849096811F8041C08406F
:100AD0000549096801F8080C03480068001F02492D
:100AE000086000BF704700009401002000BF0A4862
:100AF000006850F8080C0849096851F8041C0840BF
:100B00000549096841F8080C03480068001F0249BC
:100B1000086000BF704700009401002000BF0A4831
:100B2000006830F9080C0849096831F9041C0840CC
:100B30000549096821F8080C03480068001F0249AC
:100B4000086000BF7047000094010020044800685E
:100B500010F8040CC0430249096801F8040C7047FE
:100B6000940100200448006850F8040CC043024976
:100B7000096841F8040C704794010020044800689B
:100B800030F9040CC0430249096821F8040C70478D
:100B90009401002010B5A4B0DF48006800781390DD
:100BA000DD480068401CDC49086000201290DB48EA
:100BB0000068001FD949086011E0D8480068026841
:100BC0001398401E1299401A14A941F82020D348C6
:100BD0000068001FD14908601298401C1290DDE99E
:100BE00012018842E9D3CD4800680068119013983B
:100BF00011286ED2DFE800F0090E141D293747597D
:100C00006E849CB6D2F4F2F1F0000020119988476E
:100C1000109074E114980F901199884710906EE12C
:100C200015980F9014980E90119A0F999047109064
:100C300065E116980F9015980E9014980D90119BE1
:100C4000DDE90E129847109059E117980F90169809
:100C50000E9015980D9014980C90119C0DA90EC92A
:100C6000A04710904BE11898009017980F90169895
:100C70000E9015980D9014980C90119C0DA90EC90A
:100C8000A04710903BE1DDE91801CDE9000117987C
:100C90000F9016980E9015980D9014980C90119C2A
:100CA0000DA90EC9A047109029E1DDE91921189876
:100CB000CDE90121009017980F9016980E90159885
:100CC0000D9014980C90119C0DA90EC9A04710907E
:100CD00015E111E1DDE9193218991B98CDE90132CE
:100CE0000091039017980F9016980E9015980D90FC
:100CF00014980C90119C0DA90EC9A0471090FEE00D
:100D0000DDE91923DDE91B10CDE90123CDE903104D
:100D10001898009017980F9016980E9015980D90AF
:100D200014980C90119C0DA90EC9A0471090E6E0F4
:100D3000DDE91A23DDE91C10CDE90223CDE9041019
:100D4000DDE91801CDE9000117980F9016980E9073
:100D500015980D9014980C90119C0DA90EC9A047E0
:100D60001090CCE0DDE91C321B991E98CDE90432CD
:100D700003910690DDE919211898CDE90121009031
:100D800017980F9016980E9015980D9014980C9037
:100D9000119C0DA90EC9A0471090B0E0DDE91C23FD
:100DA000DDE91E10CDE90423CDE90610DDE9193295
:100DB00018991B98CDE901320091039017980F9074
:100DC00016980E9015980D9014980C90119C0DA9E2
:100DD0000EC9A047109092E068E043E020E0FFE7F2
:100DE000DDE91E321D992098CDE906320591089063
:100DF000DDE91923DDE91B01CDE90123CDE903017B
:100E00001898009017980F9016980E9015980D90BE
:100E100014980C90119C0DA90EC9A04710906EE07B
:100E2000DDE91E13DDE92002CDE90613CDE9080254
:100E3000DDE91A23DDE91C01CDE90223CDE9040136
:100E4000DDE91801CDE9000117980F9016980E9072
:100E500015980D9014980C90119C0DA90EC9A047DF
:100E600010904CE0DDE92031229A1F98CDE908313D
:100E70000A920790DDE91B23DDE91D01CDE903237B
:100E8000CDE90501DDE919211898CDE9012100908E
:100E900017980F9016980E9015980D9014980C9026
:100EA000119C0DA90EC9A047109028E0DDE9213260
:100EB00020992398CDE9093208910B90DDE91D3284
:100EC0001C991F98CDE9053204910790DDE918239C
:100ED000DDE91A10CDE90023CDE9021017980F9033
:100EE00016980E9015980D9014980C90119C0DA9C1
:100EF0000EC9A047109002E00020109000BF00BF74
:100F0000064910980968086004480068001D0349F4
:100F1000086024B010BD000098010020940100205A
:100F200000BF0A48006810F8080C0849096811F861
:100F3000041C90FBF1F00549096801F8080C03480E
:100F40000068001F0149086000BF7047940100203D
:100F500000BF0A48006850F8080C0849096851F8B1
:100F6000041C90FBF1F00549096841F8080C03489E
:100F70000068001F0149086000BF7047940100200D
:100F800000BF0B48006830F9080C0949096831F9BD
:100F9000041C90FBF1F000B20549096821F8080C27
:100FA00003480068001F0249086000BF7047000046
:100FB0009401002008480068007808490968087012
:100FC00006480068001D0549086003480068401C89
:100FD000014908607047000098010020940100203A
:100FE0000F48006800780E490968497840EA0120F6
:100FF0000B490968897840EA014009490968C978BC
:1010000040EA016007490968086006480068001D59
:101010000449086002480068001D014908607047E3
:1010200098010020940100201049096809780F4AAE
:101030001268527841EA02210C4A1268927841EA19
:1010400002410A4A1268D27841EA02600178084AED
:101050001268117006490968091D054A11600349A3
:101060000968091D014A11607047000098010020BD
:10107000940100200449096851F8040C0178024ADF
:10108000126802F8041C7047940100201049096896
:1010900009780F4A1268527841EA02210C4A126814
:1010A000927841EA02410A4A1268D27841EA026023
:1010B000084A01681268116006490968091D054A55
:1010C000116003490968091D014A11607047000059
:1010D00098010020940100200449096851F8040C8B
:1010E000024A0168126842F8041C7047940100200B
:1010F0001049096809780F4A1268527841EA0221BA
:101100000C4A1268927841EA02410A4A1268D2787F
:1011100041EA02600188084A12681180064909689C
:10112000091D054A116003490968091D014A11603A
:1011300070470000980100209401002004490968CC
:1011400051F8040C0188024A126822F8041C704706
:10115000940100200B48006800780A490968497822
:1011600040EA012000B20849096808800648006882
:10117000001D0549086003480068801C014908609B
:1011800070470000980100209401002000BF0B4828
:10119000006810F8080C0949096811F8041C90FB54
:1011A000F1F201FB12000549096801F8080C034837
:1011B0000068001F0149086000BF704794010020CB
:1011C00000BF0B48006850F8080C0949096851F83D
:1011D000041C90FBF1F201FB12000549096841F87B
:1011E000080C03480068001F0149086000BF7047F1
:1011F0009401002000BF0B48006830F9080C094931
:10120000096831F9041C90FBF1F201FB1200054959
:10121000096821F8080C03480068001F01490860AC
:1012200000BF70479401002000BF0A48006810F812
:10123000080C0849096811F8041C48430549096865
:1012400001F8080C03480068001F0249086000BF4D
:10125000704700009401002000BF0A48006850F861
:10126000080C0849096851F8041C484305490968F5
:1012700041F8080C03480068001F0249086000BFDD
:10128000704700009401002000BF0A48006830F851
:10129000080C0849096831F8041C484300B20549A4
:1012A000096821F8080C03480068001F014908601C
:1012B00000BF7047940100207047000000BF0A483B
:1012C000006810F8080C0849096811F8041C084364
:1012D0000549096801F8080C03480068001F024925
:1012E000086000BF704700009401002000BF0A485A
:1012F000006850F8080C0849096851F8041C0843B4
:101300000549096841F8080C03480068001F0249B4
:10131000086000BF704700009401002000BF0A4829
:10132000006830F9080C0849096831F9041C0843C1
:101330000549096821F8080C03480068001F0249A4
:10134000086000BF70470000940100200248006858
:10135000001F0149086070479401002000BF0A483F
:10136000006810F8080C0849096811F8041C884046
:101370000549096801F8080C03480068001F024984
:10138000086000BF704700009401002000BF0A48B9
:10139000006850F8080C0849096811F8041C8840D6
:1013A0000549096841F8080C03480068001F024914
:1013B000086000BF704700009401002000BF0A4889
:1013C000006830F8080C0849096811F8041C8840C6
:1013D00000B20549096821F8080C03480068001F9D
:1013E0000149086000BF70479401002000BF0A480F
:1013F000006810F8080C0849096811F8041C084135
:101400000549096801F8080C03480068001F0249F3
:10141000086000BF704700009401002000BF0A4828
:10142000006850F8080C0849096811F8041C0841C4
:101430000549096841F8080C03480068001F024983
:10144000086000BF704700009401002000BF0A48F8
:10145000006830F9080C0849096811F8041C0841B3
:101460000549096821F8080C03480068001F024973
:10147000086000BF70470000940100200748006822
:1014800010F8040C0549096851F8081C0870034855
:101490000068001F014908607047000094010020A7
:1014A0000748006850F8040C0549096851F8081C01
:1014B000086003480068001F014908607047000089
:1014C000940100200748006830F8040C05490968B9
:1014D00051F8081C088003480068001F0149086093
:1014E000704700009401002000BF0A48006810F80F
:1014F000080C0849096811F8041C401A05490968D4
:1015000001F8080C03480068001F0249086000BF8A
:10151000704700009401002000BF0A48006850F89E
:10152000080C0849096851F8041C401A0549096863
:1015300041F8080C03480068001F0249086000BF1A
:10154000704700009401002000BF0A48006830F88E
:10155000080C0849096831F8041C401A00B2054912
:10156000096821F8080C03480068001F0149086059
:1015700000BF70479401002000BF0A48006810F8BF
:10158000080C0849096811F8041C48400549096815
:1015900001F8080C03480068001F0249086000BFFA
:1015A000704700009401002000BF0A48006850F80E
:1015B000080C0849096851F8041C484005490968A5
:1015C00041F8080C03480068001F0249086000BF8A
:1015D000704700009401002000BF0A48006830F9FD
:1015E000080C0849096831F9041C48400549096894
:1015F00021F8080C03480068001F0249086000BF7A
:10160000704700009401002070B504460D46104854
:10161000204008B904B104E040F269410DA001F096
:101620003BFD0DB1012D00D104E040F26A4109A05B
:1016300001F032FD2DB11748C06920431549C8613A
:1016400004E01448C069A0431249C86170BD00009D
:10165000003601816273705C4C6962726172696507
:10166000735C53544D3332463130785F5374645059
:1016700065726970685F4472697665725C737263E3
:101680005C73746D3332663130785F7263632E63DE
:10169000000000000010024070B504460D461048DE
:1016A000204008B904B104E040F24A410DA001F025
:1016B000F3FC0DB1012D00D104E040F24B4109A033
:1016C00001F0EAFC2DB11748806920431549886173
:1016D00004E014488069A0431249886170BD00008D
:1016E0000200C0FF6273705C4C696272617269656E
:1016F000735C53544D3332463130785F53746450C9
:1017000065726970685F4472697665725C73726352
:101710005C73746D3332663130785F7263632E634D
:10172000000000000010024010B501210420FFF766
:10173000B3FF01218803FFF7AFFF01210420FFF76A
:10174000ABFF01214804FFF75FFF01210820FFF7ED
:10175000A3FF01218804FFF757FF10BD30B500211A
:101760000022002400232D4D6D6805F00C0121B1ED
:10177000042905D0082923D105E0294D056022E080
:10178000274D05601FE0254D6D6805F47012234D4F
:101790006D6805F48034022505EB92421CB9214D99
:1017A000554305600BE01D4D6D6805F400351DB116
:1017B0001C4D5543056002E0194D5543056002E09C
:1017C000174D056000BF00BF144D6D6805F0F001B6
:1017D0000909154D6B5C0568DD4045600F4D6D686E
:1017E00005F4E061090A104D6B5C4568DD408560D9
:1017F0000A4D6D6805F46051C90A0B4D6B5C456874
:10180000DD40C560054D6D6805F44041890B074D0D
:101810006B5CC568B5FBF3F5056130BD0010024097
:1018200000127A0000093D00000000201000002096
:10183000704710B500F002F810BD00000CB5002094
:10184000019000903348006840F4803031490860CE
:1018500000BF3048006800F4003000900198401C40
:101860000190009818B90198B0F5A06FF1D12948FE
:10187000006800F4003010B10120009001E0002069
:1018800000900098012843D12348006840F01000E0
:10189000214908600846006820F0030008600846F7
:1018A000006840F0020008601A4840681949486022
:1018B0000846406848600846406840F480604860D8
:1018C0000846406820F47C1048600846406840F4B0
:1018D000E81048600846006840F08070086000BF6B
:1018E0000C48006800F000700028F9D009484068F2
:1018F00020F00300074948600846406840F00200B5
:10190000486000BF0348406800F00C000828F9D187
:101910000CBD0000001002400020024010B506F08F
:101920000BFC08F01DFB06F01FFC10BD10B51348A2
:10193000006840F0010011490860084640681049FD
:1019400008400E494860084600680E4908400B49A7
:1019500008600846006820F4802008600846406857
:1019600020F4FE0048604FF41F008860FFF761FF1D
:101970004FF000600449086010BD000000100240F4
:101980000000FFF8FFFFF6FE08ED00E010B5144C74
:1019900006F0D2FB40F22551206800F0C9F940B1B1
:1019A0000121104806F01AFA40F22551206800F093
:1019B00077F840F22661206800F0BAF920B140F2D1
:1019C0002661206800F06CF80821206800F036F9E4
:1019D000012802D1034809F07DF806F0C5FB10BDCF
:1019E000B8010020F413002010B5144C06F0A4FB3D
:1019F00040F22551206800F09BF940B101211048C8
:101A000006F0ECF940F22551206800F049F840F268
:101A10002661206800F08CF920B140F22661206830
:101A200000F03EF80821206800F008F9012802D1F2
:101A3000034809F04FF806F097FB10BDC0010020E5
:101A40004814002010B5144C06F076FB40F22551E6
:101A5000206800F06DF940B10121104806F0BEF990
:101A600040F22551206800F01BF840F22661206802
:101A700000F05EF920B140F22661206800F010F815
:101A80000821206800F0DAF8012802D1034809F0A3
:101A900021F806F069FB10BDC80100209C1400204D
:101AA0002DE9F04104460D460026002722488442D5
:101AB0000BD02248844208D02148844205D02148D6
:101AC000844202D02048844200D104E040F20A411E
:101AD0001EA001F0E1FA40F2266085420BD040F2F0
:101AE0002550854207D040F64600854203D040F697
:101AF0006A10854200D104E040F20B4113A001F0CE
:101B0000CBFA40F66A1085420ED10B48844205D0CC
:101B10000A48844202D00A48844200D104E040F2DC
:101B20000F410AA001F0B8FA2E120120B04087B28E
:101B3000F8432080BDE8F0810038014000440040B7
:101B400000480040004C0040005000406273705C50
:101B50004C69627261726965735C53544D333246ED
:101B60003130785F5374645065726970685F447295
:101B7000697665725C7372635C73746D333266315F
:101B800030785F75736172742E63000070B504461F
:101B90000D46154884420BD01448844208D014489E
:101BA000844205D01348844202D01348844200D1B5
:101BB00004E04FF4B17111A001F06EFA0DB1012DE6
:101BC00000D104E040F263110CA001F065FA25B1E8
:101BD000A08940F40050A08104E0A0894DF6FF7177
:101BE0000840A08170BD0000003801400044004062
:101BF00000480040004C0040005000406273705CA0
:101C00004C69627261726965735C53544D3332463C
:101C10003130785F5374645065726970685F4472E4
:101C2000697665725C7372635C73746D33326631AE
:101C300030785F75736172742E63000070B505466D
:101C40000C460026254885420BD02548854208D001
:101C50002448854205D02448854202D02348854245
:101C600000D104E040F26E3121A001F015FA012C00
:101C700013D0802C11D0402C0FD0202C0DD0102C44
:101C80000BD0B4F5807F08D0B4F5007F05D0082CC8
:101C900003D0042C01D0022C00D104E040F26F31BB
:101CA00013A001F0F9F9B4F5007F0ED10B4885427D
:101CB00005D00B48854202D00A48854200D104E095
:101CC00040F273310AA001F0E7F92888204008B1FA
:101CD000012600E00026304670BD000000380140BB
:101CE0000044004000480040004C004000500040CC
:101CF0006273705C4C69627261726965735C5354A3
:101D00004D3332463130785F537464506572697078
:101D1000685F4472697665725C7372635C73746D3C
:101D20003332663130785F75736172742E630000F0
:101D30002DE9F04705460C4600270026B046B1467F
:101D40003A4885420BD03A48854208D03948854206
:101D500005D03948854202D03848854200D104E098
:101D600040F2C13136A001F097F9282C20D040F282
:101D7000277084421CD040F22660844218D040F282
:101D80002550844214D040F22440844210D040F6C2
:101D9000460084420CD040F66A10844208D0B4F564
:101DA000587F05D0B4F5187F02D0B4F5B07F00D1CC
:101DB00004E040F2C23122A001F06EF940F66A1050
:101DC00084420ED11948854205D01948854202D077
:101DD0001848854200D104E040F2C63118A001F055
:101DE0005BF9C4F3421804F01F06012000FA06F65E
:101DF000B8F1010F02D1A889064007E0B8F1020F3F
:101E000002D1288A064001E0A88A06402712012054
:101E100000FA07F7288807401EB117B14FF00109F3
:101E200001E04FF000094846BDE8F0870038014066
:101E30000044004000480040004C0040005000407A
:101E40006273705C4C69627261726965735C535451
:101E50004D3332463130785F537464506572697027
:101E6000685F4472697665725C7372635C73746DEB
:101E70003332663130785F75736172742E6300009F
:101E80002DE9F04705460C4617464FF00008C246BC
:101E9000C1460026384885420BD03848854208D0D4
:101EA0003748854205D03748854202D036488542BA
:101EB00000D104E040F2891134A001F0EDF8282CA3
:101EC00019D040F22770844215D040F22660844237
:101ED00011D040F2255084420DD040F2244084427B
:101EE00009D040F64600844205D040F66A1084428C
:101EF00001D0602C00D104E04FF4C57123A001F0A3
:101F0000CBF80FB1012F00D104E040F28B111FA0DC
:101F100001F0C2F840F66A1084420ED1164885429C
:101F200005D01648854202D01548854200D104E00C
:101F300040F28F1115A001F0AFF82E46C4F34218FD
:101F400004F01F0A012000FA0AF9B8F1010F01D1CB
:101F50000C3605E0B8F1020F01D1103600E014365E
:101F600027B1306840EA0900306003E0306820EAB9
:101F700009003060BDE8F0870038014000440040AF
:101F800000480040004C0040005000406273705C0C
:101F90004C69627261726965735C53544D333246A9
:101FA0003130785F5374645065726970685F447251
:101FB000697665725C7372635C73746D333266311B
:101FC00030785F75736172742E6300002DE9F047FD
:101FD00086B005460C460026B24600BFB146002733
:101FE0006B4885420BD06B48854208D06A488542D1
:101FF00005D06A48854202D06948854200D103E095
:10200000B82168A001F048F8206820B1754920681F
:10201000884200D203E0B92162A001F03DF8A08817
:1020200018B1A088B0F5805F00D103E0BA215DA0AF
:1020300001F032F8E08858B1E088B0F5805F07D051
:10204000E088B0F5005F03D0E088B0F5405F00D1D4
:1020500003E0BB2153A001F01FF8208938B120898B
:10206000B0F5806F03D02089B0F5C06F00D103E0D8
:10207000BC214CA001F010F860894FF6F3710840C4
:1020800010B9608900B103E0BD2146A001F004F859
:10209000A08958B1A089B0F5807F07D0A089B0F59C
:1020A000007F03D0A089B0F5407F00D103E0BE21BE
:1020B0003CA000F0F1FFA08968B13548854205D009
:1020C0003448854202D03448854200D103E0C22121
:1020D00034A000F0E1FF2F462E8A4CF6FF70064038
:1020E000E08806432E82AE894EF6F3100640A088A3
:1020F00021890843618908430643AE81AE8A4FF6C1
:10210000FF400640A0890643AE8201A8FFF726FBE8
:102110001F48874202D1DDF810A001E0DDF80CA0D5
:10212000A88900F4004040B10AEBCA0000EB0A1095
:1021300021684900B0FBF1F807E00AEBCA0000EBA8
:102140000A1021688900B0FBF1F86420B8FBF0F0B8
:1021500006013009642101FB1089A88900F40040C0
:1021600040B1322000EBC900B0FBF1F000F00700F5
:10217000064308E0322000EB09106421B0FBF1F0C7
:1021800000F00F0006432E8106B0BDE8F087000086
:10219000003801400044004000480040004C00402E
:1021A000005000406273705C4C69627261726965D4
:1021B000735C53544D3332463130785F53746450FE
:1021C00065726970685F4472697665725C73726388
:1021D0005C73746D3332663130785F75736172741D
:1021E0002E63000021AA440000BFFEE700487047AC
:1021F000D0010020014609B900207047C8B220B1C3
:10220000C8B20E4A105C401CF7E701F47F4028B1C9
:102210000A48C1F30722805C0930EEE701F47F0031
:1022200028B10648C1F30742805C1130E5E7034856
:1022300000EB116000781930DFE70000F6B6000807
:1022400002E008C8121F08C1002AFAD1704770477F
:10225000002001E001C1121F002AFBD170470000DD
:1022600003490868884201D0012070470020FCE73C
:102270002001002070B594B005464C22124901A8F7
:10228000FDF7EAFF11A005F0CBFF1BA005F0C8FF8A
:102290002E6813E0A6F10C04A07E0090207D122889
:1022A00004DC207D01A951F8200000E013980346CA
:1022B000224608211BA005F0B3FF3668AE42E9D1E3
:1022C000002014B070BD0000ECBB000864657669A6
:1022D0006365202020747970652020202020202034
:1022E0002020202020202020202072656620636F7F
:1022F000756E740A000000002D2D2D2D2D2D2D2D15
:10230000202D2D2D2D2D2D2D2D2D2D2D2D2D2D2D0A
:102310002D2D2D2D2D202D2D2D2D2D2D2D2D2D2DFA
:102320000A000000252D382E2A7320252D32307307
:1023300020252D38640A0000F8B5054616A005F0E2
:102340006FFF1EA005F06CFF2E6821E0A6F10C04C3
:1023500004F1140005F0E7FF98B904F1140005F04A
:10236000EAFF07460090224608211DA0E36905F018
:1023700057FF04F1140008F08BFA1FA005F050FF7E
:1023800005E0224608211DA0E36905F049FF3668F3
:10239000AE42DBD10020F8BD6576656E742020204A
:1023A00020736574202020202020202073757370F6
:1023B000656E64207468726561640A002D2D2D2D90
:1023C0002D2D2D2D202D2D2D2D2D2D2D2D2D2D2057
:1023D0002D2D2D2D2D2D2D2D2D2D2D2D2D2D0A007D
:1023E000252D382E2A732020307825303878202566
:1023F0003033643A000000000A000000252D382E1A
:102400002A73202030782530387820300A000000E8
:102410002DE9FC4105461CA005F002FF23A005F0B4
:10242000FFFE2E682BE0A6F10C0404F1140005F069
:102430007AFFA8B904F1140005F07DFF0746208C4F
:10244000CDE90007638C2246082121A005F0E8FEB3
:1024500004F1140008F01CFA23A005F0E1FE0DE0E1
:1024600004F1140005F067FF0746208CCDE9000752
:10247000638C224608211DA005F0D2FE3668AE42CC
:10248000D1D10020BDE8FC816D61696C626F78205C
:1024900020656E7472792073697A65207375737024
:1024A000656E64207468726561640A002D2D2D2D9F
:1024B0002D2D2D2D202D2D2D2D20202D2D2D2D2080
:1024C0002D2D2D2D2D2D2D2D2D2D2D2D2D2D0A008C
:1024D000252D382E2A7320253034642020253034D1
:1024E000642025643A0000000A000000252D382EE3
:1024F0002A7320253034642020253034642025645C
:102500000A000000FEB5054618A005F089FE22A0CD
:1025100005F086FE2E6824E0A6F10C04606B98B1ED
:10252000D4E90912606BCDE900120290224608211D
:1025300024A0E36905F074FE04F12C0008F0A8F96A
:1025400014A005F06DFE0BE0D4E90912606BCDE933
:10255000001202902246082121A0E36905F060FEE6
:102560003668AE42D8D10020FEBD00006D656D70AA
:102570006F6F6C2020626C6F636B20746F74616C82
:1025800020667265652073757370656E642074686B
:10259000726561640A0000002D2D2D2D2D2D2D2D2D
:1025A000202D2D2D2D20202D2D2D2D20202D2D2D9C
:1025B0002D202D2D2D2D2D2D2D2D2D2D2D2D2D2D58
:1025C0000A000000252D382E2A732025303464207F
:1025D00020253034642020253034642025643A00DE
:1025E000252D382E2A7320253034642020253034C0
:1025F000642020253034642025640A00F8B505469F
:1026000019A005F00DFE20A005F00AFE2E6827E0B7
:10261000A6F10C0404F1140005F085FE98B904F14C
:10262000140005F088FE07460090A38C224608217E
:102630001DA005F0F5FD04F1140008F029F91FA014
:1026400005F0EEFD0BE004F1140005F074FE074602
:102650000090A38C2246082119A005F0E1FD366800
:10266000AE42D5D10020F8BD6D7367717565756593
:1026700020656E7472792073757370656E64207452
:1026800068726561640A00002D2D2D2D2D2D2D2DD4
:10269000202D2D2D2D20202D2D2D2D2D2D2D2D2D91
:1026A0002D2D2D2D2D0A0000252D382E2A732025A5
:1026B000303464202025643A000000000A00000045
:1026C000252D382E2A732025303464202025640AD5
:1026D00000000000FEB505460FA005F0A1FD18A002
:1026E00005F09EFD2E6812E0A6F10C0404F1140022
:1026F00005F021FE0746E07F216A08232246CDE946
:1027000001070091194618A005F08AFD3668AE420F
:10271000EAD10020FEBD00006D7574657820202090
:10272000206F776E657220202020686F6C642073A4
:10273000757370656E64207468726561640A000068
:102740002D2D2D2D2D2D2D2D202D2D2D2D2D2D2DC6
:102750002D202D2D2D2D202D2D2D2D2D2D2D2D2DC3
:102760002D2D2D2D2D0A0000252D382E2A732025E4
:102770002D382E2A7320253034642025640A000069
:10278000F8B5054619A005F04BFD20A005F048FD61
:102790002E6827E0A6F10C0404F1140005F0C3FD37
:1027A00098B904F1140005F0C6FD07460090A38B0C
:1027B000224608211DA005F033FD04F1140008F0A5
:1027C00067F811A005F02CFD0BE004F1140005F0F2
:1027D000B2FD07460090A38B2246082118A005F001
:1027E0001FFD3668AE42D5D10020F8BD73656D611E
:1027F00070686F7265207620202073757370656E27
:1028000064207468726561640A0000002D2D2D2D0E
:102810002D2D2D2D20202D2D2D202D2D2D2D2D2D0F
:102820002D2D2D2D2D2D2D2D0A000000252D382E7E
:102830002A732020253033642025643A00000000EC
:10284000252D382E2A732020253033642025640A54
:10285000000000002DE9FC410546294805F0E0FC98
:10286000284805F0DDFC2E6845E0A6F10C0494F83C
:1028700035302246082124A005F0D2FC94F834001B
:10288000012803D124A005F0CBFC15E094F8340016
:10289000022803D123A005F0C3FC0DE094F8340016
:1028A00018B923A005F0BCFC06E094F83400042815
:1028B00002D122A005F0B4FCA76A00E07F1C3878A2
:1028C0002328FBD0216BA06CCDE90001A08DD4F8AA
:1028D00028C0A7EB0C0CA0EB0C03D4F81CC0A06A1A
:1028E000A0EB0C00B4F82CC000EB0C01624616A063
:1028F00005F096FC3668AE42B7D10020BDE8FC81F9
:10290000D0BF000888BF0008252D382E2A7320303C
:1029100078253032780000002072656164792020CB
:10292000000000002073757370656E640000000085
:1029300020696E69742020200000000020636C6F05
:102940007365202000000000203078253038782082
:102950003078253038782030782530387820307835
:102960002530387820253033640A0000F8B5054654
:1029700014A005F055FC1DA005F052FC2E6815E0D2
:10298000A6F10C04A06A00902246082122A0636AE6
:1029900005F046FC607A00F0010018B124A005F0B3
:1029A0003FFC02E025A005F03BFC3668AE42E7D1D3
:1029B00007F0D0FA0746394624A005F031FC002084
:1029C000F8BD000074696D6572202020207065726A
:1029D000696F64696320202074696D656F75742068
:1029E000202020666C61670A000000002D2D2D2D2F
:1029F0002D2D2D2D202D2D2D2D2D2D2D2D2D2D2021
:102A00002D2D2D2D2D2D2D2D2D2D202D2D2D2D2D03
:102A10002D2D2D2D2D2D0A00252D382E2A732030F9
:102A2000782530387820307825303878200000003C
:102A30006163746976617465640A0000646561634A
:102A4000746976617465640A0000000063757272CF
:102A5000656E74207469636B3A3078253038780A73
:102A60000000000038B504466CB9002000905A23DD
:102A7000154A16A11AA005F0D3FB00BF9DF800006F
:102A80000028FBD000BFA16AE069884205D9A18D6A
:102A9000A06A0844E16988420CD2214618A005F0DA
:102AA000BFFB03F065FAFDF761FB054600BF002D93
:102AB000FDD108E0A06A2030E169814203D82146B7
:102AC00016A005F0ADFB38BDE3B800087468726568
:102AD000616420213D2052545F4E554C4C00000053
:102AE0002825732920617373657274206661696C8F
:102AF00065642061742025733A2564200A00000073
:102B00007468726561643A257320737461636B2025
:102B10006F766572666C6F770A0000007761726E7F
:102B2000696E673A20257320737461636B20697343
:102B300020636C6F736520746F20656E64206F6610
:102B400020737461636B20616464726573732E0A11
:102B5000000000002DE9FC5F04468B4616461F4628
:102B6000DDE90C9ADDE90E5804F1140040600060C4
:102B700000BF26626762C4F82890A4F82CA0A28D3A
:102B80002321A06A05F0ADFDB4F82CC0A36A63440C
:102B90001A1F174BD4E9080105F034FAE061202D23
:102BA0000DDB002001906E23124A13A11BA005F03B
:102BB00037FB00BF9DF804000028FBD000BF303475
:102BC000A5716571C4F81480C4F8188000202060D5
:102BD0002071A064E064303C00902346174A2146EF
:102BE000019004F14C0007F0A9FA0020BDE8FC9F19
:102BF0002999000831B900087072696F7269747997
:102C0000203C2052545F5448524541445F50524941
:102C10004F524954595F4D415800000028257329EF
:102C200020617373657274206661696C65642061EC
:102C3000742025733A2564200A000000319E0008A4
:102C40002DE9F04704460E4617469846DDF82090D9
:102C500084F80990607A20F001006072E6612762D2
:102C60000020A062C4F82480002506E004F11401CD
:102C700001EBC50005F011FB6D1C012DF6DBBDE875
:102C8000F08710B50246002001460EE002F1140361
:102C900003EBC100D0E900436360D0E90034236056
:102CA0004060006000BF481C01460129EEDB10BDFA
:102CB0002DE9F84304460E4617464FF0000804B1CC
:102CC0006EB900200090A4231D4A1EA128A005F083
:102CD000A7FA00BF9DF800000028FBD000BFE56CFC
:102CE0006DB900200090A623154A29A120A005F067
:102CF00097FA00BF9DF800000028FBD000BFFDF749
:102D000035FA8146286801280AD001202860206C05
:102D100001233A463146D0F810C02046E04701E092
:102D20006FF006084846FDF725FAB8F1000F02D10A
:102D30003846BDE8F883404606F012FC0020F8E76C
:102D4000CCB300082873657269616C20213D205264
:102D5000545F4E554C4C292026262028646174610E
:102D600020213D2052545F4E554C4C29000000005C
:102D70002825732920617373657274206661696CFC
:102D800065642061742025733A2564200A000000E0
:102D900072785F646D6120213D2052545F4E554C26
:102DA0004C0000002DE9F047044688461646256D84
:102DB0004FF0FF3332464146281D04F09BFA074688
:102DC000CFB9FDF7D3F98146286801280DD001203D
:102DD00028604846FDF7CEF9206C02233246414672
:102DE000D0F810C02046E04702E04846FDF7C2F99F
:102DF0003046BDE8F087384606F0B2FB0020F8E721
:102E00002DE9F84F06460F4615466EB90020009092
:102E10005D23234A23A128A005F002FA00BF9DF8F4
:102E200000000028FBD000BFA846F46C6CB900205D
:102E3000009061231A4A28A11FA005F0F1F900BFF4
:102E40009DF800000028FBD000BF22E0FDF78EF9BE
:102E50008246E088A18888420FD0E188206810F877
:102E60000190E088401CE080E188B06CC0F38F20C6
:102E7000814206DB0020E08003E05046FDF77AF94E
:102E800009E05046FDF776F987F800907F1C6D1E2B
:102E900000BF002DDAD100BFA8EB0500BDE8F88F18
:102EA000AEB3000873657269616C20213D205254F5
:102EB0005F4E554C4C000000282573292061737328
:102EC000657274206661696C656420617420257385
:102ED0003A2564200A00000072785F6669666F20F8
:102EE000213D2052545F4E554C4C00002DE9F843D3
:102EF00005460E4614466DB9002000908723194AF6
:102F000019A11EA005F08CF900BF9DF80000002853
:102F1000FBD000BFA0462F6D6FB9002000908B231F
:102F2000104A1EA115A005F07BF900BF9DF8000016
:102F30000028FBD000BF0FE03178286C826828465B
:102F40009047401C28B94FF0FF31384603F01CFF72
:102F500002E0761C641E00BF002CEDD1A8EB04003B
:102F6000BDE8F883BDB3000873657269616C202108
:102F70003D2052545F4E554C4C00000028257329CB
:102F800020617373657274206661696C6564206189
:102F9000742025733A2564200A00000074782021EB
:102FA0003D2052545F4E554C4C0000002DE9F84333
:102FB00006460F4614466EB9002000902C230F4A97
:102FC0000FA114A005F02CF900BF9DF80000002807
:102FD000FBD000BFA0460AE0306CC168304688478D
:102FE00005463D707F1C641E0A2D00D101E0002CB7
:102FF000F2D100BFA8EB0400BDE8F8838EB300084F
:1030000073657269616C20213D2052545F4E554CAE
:103010004C000000282573292061737365727420A9
:103020006661696C65642061742025733A256420AB
:103030000A000000F8B504460E46154674B9002093
:1030400000903E23124A134901F1140005F0E8F8FC
:1030500000BF9DF800000028FBD000BF2F4612E003
:1030600030780A2808D1207E00F0400020B1206C82
:103070000D218268204690473178206C8268204676
:103080009047761C6D1E002DEAD1781BF8BD00001C
:103090009EB300080030000804460D4606A005F067
:1030A000BFF821460EA005F0BBF8294611A005F097
:1030B000B7F800BFFEE700000A0D2057726F6E6779
:1030C00020706172616D657465722076616C7565E2
:1030D000206465746563746564206F6E0D0A00007A
:1030E0002020202020202066696C65202025730D7B
:1030F0000A000000202020202020206C696E65201E
:103100002025640D0A00000010B520A005F088F805
:103110002148017821A005F083F81F48007800F0CD
:10312000010010B123A005F07BF81B48007800F0E7
:10313000020010B122A005F073F81748007800F0E3
:10314000040010B121A005F06BF81348007800F0DE
:10315000080010B121A005F063F80F48007800F0D6
:10316000100010B120A005F05BF80B48007800F0CB
:10317000800030B108480F3001681DA005F050F8FC
:1031800002E01FA005F04CF810BD0000627573202E
:103190006661756C743A0A0029ED00E05343425FA2
:1031A000434653525F424653523A307825303258A4
:1031B00020000000494255534552522000000000B3
:1031C000505245434953455252200000494D5052F8
:1031D000454349534552522000000000554E535478
:1031E0004B4552522000000053544B455252200090
:1031F0005343422D3E424641523A253038580A0048
:103200000A000000024613680BB91160704710688D
:10321000884202D948601160F8E7106807E0436807
:103220008B4200D905E0436803B902E040680028FA
:10323000F5D100BF43680BB143684B60416000BFEC
:10324000E4E730B503464A681C688C4201D100208F
:1032500009E0186804E044688C4200D102E040684C
:103260000028F8D100BFE0B10468044408348C425F
:1032700017D172B10C680C440834944209D10C681F
:1032800015682C44103405682C440460546844606C
:1032900014E005680C6808342C4404604C684460F1
:1032A0000CE05AB10C680C440834944206D10D6805
:1032B000146808342C440C6054684C6030BD0246DD
:1032C0001068884204D14B68136000234B6070473C
:1032D000106806E043688B4202D14B68436002E00D
:1032E00040680028F6D100BF00BFF0E700F10803F6
:1032F0005A180368083B5B1A136001604368536007
:103300004260704710B50446002C01F0218320690B
:1033100010B12069FFF7F6FF20781C2881F00E839A
:10332000DFE810F00C0B1C00D901EF01F0011B02CB
:103330001A0242026A029502C002EB02160341031E
:103340006C039703C203ED031A0439040C0BE70462
:1033500022065B070E09D80A0B0BC10AA07800F001
:10336000040048B300BF2420FA4909680870F948EE
:103370000068401CF749086000BF00BF00BFA0689C
:10338000007A09680870A0680089000AF149096894
:103390004870A0688068000CEE4909688870A068D1
:1033A0008068000EEB490968C87000BFE9480068F2
:1033B000001DE84908608CE1A07800F002000028B8
:1033C0007ED0A06800287CD0017AC91E0C293ED28C
:1033D000DFE801F006077C3E3F7D78797E7A7B7FCF
:1033E00000BFA17801F0080151B100BF2421D94AE2
:1033F00012681170D7490968491CD64A11600AE061
:1034000000BF2521D34A12681170D2490968491CAE
:10341000D04A116000BF00BF00BF017BCD4A1268D7
:1034200011708189090ACB4A12685170C168090C70
:10343000C84A12689170C168090EC64A1268D170F4
:1034400000BFC4490968091DC24A116000BF77E086
:1034500000BFA17801F0080151B100BF2421BD4A8D
:1034600012681170BB490968491CBA4A11600AE028
:1034700000BF2621B74A12681170B6490968491C75
:10348000B44A116000BF00BF00BF017BB14A12689F
:1034900011708189090AAF4A12685170C168090C1C
:1034A000AC4A12689170C168090EAA4A1268D170BC
:1034B00000BFA8490968091DA64A116000BF3FE086
:1034C00040E03EE000BF00BF00BF00BF00BF00BF44
:1034D00000BFA17801F0080151B100BF24219D4A2D
:1034E000126811709B490968491C9A4A11600AE0E8
:1034F00000BF2721974A1268117096490968491C34
:10350000944A116000BF00BF00BF017B914A12685E
:1035100011708189090A8F4A12685170C168090CBB
:103520008C4A12689170C168090E8A4A1268D1707B
:1035300000BF88490968091D864A116000BF00BFA5
:1035400000BFC6E0A06800287ED0417CC91E0C29BF
:1035500040D2DFE801F00607804041817C7D827E19
:103560007F8300BFA17801F0080151B100BF242181
:10357000784A1268117077490968491C754A1160C8
:103580000AE000BF2521734A126811707149096869
:10359000491C704A116000BF00BF00BF00F1140158
:1035A0006C4A12681170090A6A4A1268517000F177
:1035B0001401090C674A1268917000F11401090E98
:1035C000644A1268D17000BF62490968091D614AE6
:1035D000116000BF7BE000BFA17801F0080151B18C
:1035E00000BF24215B4A126811705A490968491CBE
:1035F000584A11600AE000BF2621564A126811702D
:1036000054490968491C534A116000BF00BF00BFFC
:1036100000F114014F4A12681170090A4D4A1268EC
:10362000517000F11401090C4A4A1268917000F1BE
:103630001401090E474A1268D17000BF4549096854
:10364000091D444A116000E042E000BF3FE000BFB6
:1036500000BF00BF00BF00BF00BF00BFA17801F0E6
:10366000080151B100BF24213A4A1268117039494A
:103670000968491C374A11600AE000BF2721354A12
:103680001268117033490968491C324A116000BF41
:1036900000BF00BF00F114012E4A12681170090A20
:1036A0002C4A1268517000F11401090C294A126861
:1036B000917000F11401090E264A1268D17000BF02
:1036C00024490968091D234A116000BF00BF00BFDB
:1036D00000BF01F037B900BF22201E4909680870F9
:1036E0001C480068401C1B49086000BF00BF2079CF
:1036F0000968087017480068401C1649086000BF38
:10370000E7E700BF00BF242012490968087011488C
:103710000068401C0F49086000BF00BF00BF20794F
:1037200009680870A088000A0A490968487060683A
:10373000000C0849096888706068000E054909682E
:10374000C87000BF03480068001D0249086000BF40
:10375000BFE700004401002000BF00BF2420FD4956
:1037600009680870FB480068401CFA49086000BFFF
:1037700000BF00BF207909680870A088000AF549D9
:10378000096848706068000CF249096888706068D0
:10379000000EF0490968C87000BFEE480068001DBF
:1037A000EC49086000BF94E76078012809D100BFA8
:1037B000E84909680870E7480068401CE549086066
:1037C00019E06078022809D100BFE2490968087051
:1037D000E0480068401CDF4908600CE0607803287E
:1037E00009D100BFDB4909680870DA480068401C4D
:1037F000D849086000BF6CE7607801280AD100BF93
:103800000420D44909680870D2480068401CD14996
:1038100008601BE0607802280AD100BF0520CD496E
:1038200009680870CB480068401CCA4908600DE070
:10383000607803280AD100BF0620C64909680870CD
:10384000C4480068401CC349086000BF41E7607875
:1038500001280AD100BF0D20BE4909680870BD4883
:103860000068401CBB4908601BE0607802280AD150
:1038700000BF0E20B74909680870B6480068401CB0
:10388000B44908600DE0607803280AD100BF0F201A
:10389000B04909680870AF480068401CAD4908602D
:1038A00000BF16E7607801280AD100BF0720A949A8
:1038B00009680870A7480068401CA64908601BE01A
:1038C000607802280AD100BF0820A2490968087060
:1038D000A0480068401C9F4908600DE060780328FC
:1038E0000AD100BF09209B490968087099480068FF
:1038F000401C9849086000BFEBE6607801280AD1B7
:1039000000BF0A2093490968087092480068401C6B
:10391000904908601BE0607802280AD100BF0B20A4
:103920008C49096808708B480068401C8949086008
:103930000DE0607803280AD100BF0C208549096892
:10394000087084480068401C8249086000BFC0E6D7
:10395000607801280AD100BF10207E4909680870EC
:103960007C480068401C7B4908601BE060780228A6
:103970000AD100BF112077490968087075480068AE
:10398000401C744908600DE0607803280AD100BF2C
:1039900012207049096808706E480068401C6D4923
:1039A000086000BF95E6607801280AD100BF1320A7
:1039B00068490968087067480068401C65490860E4
:1039C0001BE0607802280AD100BF14206149096811
:1039D000087060480068401C5E4908600DE060782F
:1039E00003280AD100BF15205A49096808705948B0
:1039F0000068401C5749086000BF6AE660780128EB
:103A00000AD100BF16205349096808705148006860
:103A1000401C504908601BE0607802280AD100BFB2
:103A200017204C49096808704A480068401C4949F9
:103A300008600DE0607803280AD100BF18204549CE
:103A40000968087043480068401C4249086000BF8C
:103A50003FE6607801280AD100BF19203D49096876
:103A600008703C480068401C3A4908601BE06078D8
:103A700002280AD100BF1A20364909680870354863
:103A80000068401C334908600DE0607803280AD1C3
:103A900000BF1B202F49096808702E480068401C91
:103AA0002C49086000BF14E6607801280AD100BFE5
:103AB0001C2028490968087026480068401C2549D0
:103AC00008601BE0607802280AD100BF1D20214950
:103AD000096808701F480068401C1E4908600DE016
:103AE000607803280AD100BF1E201A4909680870AF
:103AF00018480068401C1749086000BFE9E5607875
:103B000001280AD100BF1F20124909680870114816
:103B10000068401C0F4908601BE0607802280AD149
:103B200000BF20200B49096808700A480068401C43
:103B3000084908600DE0607803280AD100BF212001
:103B400004490968087003480068401C014908607E
:103B500000BFBEE54401002000212269D2B12269E4
:103B6000D06801E0491CC0680028FBD100BF2C22AE
:103B7000FC4B1B681A70FB4A1268521CF94B1A6006
:103B800000BF00BF1B681970F64A1268521CF54B43
:103B90001A6000BF9DE52069C0B320690078012844
:103BA00050D120694078012804D0022818D0032879
:103BB00043D12CE000BF2820EA4909680870E94891
:103BC0000068401CE749086000BF00BF2D2009685D
:103BD0000870E4480068401CE249086000BF30E01B
:103BE00000BF2920DF4909680870DE480068401CD2
:103BF000DC49086000BF00BF2E2009680870D94862
:103C00000068401CD749086000BF1AE01AE000BFF6
:103C10002A20D44909680870D2480068401CD1495C
:103C2000086000BF00BF2F2009680870CD480068F9
:103C3000401CCC49086000BF03E0032000F0CCFE2C
:103C400000BF55E020690078192851D120694078DB
:103C500000F00F00012804D0022818D0032842D118
:103C60002BE000BF2820BF4909680870BD480068E4
:103C7000401CBC49086000BF00BF2D2009680870C7
:103C8000B8480068401CB749086000BF2FE000BF7B
:103C90002920B44909680870B2480068401CB1493D
:103CA000086000BF00BF2E2009680870AD4800689A
:103CB000401CAC49086000BF19E000BF2A20A94998
:103CC00009680870A7480068401CA649086000BF42
:103CD00000BF2F2009680870A2480068401CA14955
:103CE000086000BF03E0032000F076FE00BF00BFC5
:103CF000EFE4206900287DD020690078012879D17F
:103D0000216988686178012904D002295DD00329DE
:103D10005AD1BDE000BF2521924A12681170914925
:103D20000968491C8F4A116000BF00BF00BF00F145
:103D3000140112681170090A8A4A1268517000F160
:103D40001401090C874A1268917000F11401090EE0
:103D5000844A1268D17000BF82490968091D814AEE
:103D6000116000BF00BF2221126811707D490968EF
:103D7000491C7C4A116000BF00BF0121126811700C
:103D800078490968491C774A116000BF00BF0121CA
:103D90001268117073490968491C724A116000BFAA
:103DA00000BF2821126811706E490968491C6D4ACC
:103DB000116000BF00BF2F211268117069490968A6
:103DC000491C684A116000BFC9E000BF2621654A4E
:103DD0001268117063490968491C624A116000BF8A
:103DE00000BF00BF00F1140112681170090A5D4A9A
:103DF000126800E0B5E0517000F11401090C594A55
:103E00001268917000F11401090E564A1268D170BF
:103E100000BF54490968091D524A116000BF00BF24
:103E20002321126811704F490968491C4D4A1160DD
:103E300000BF00BF00BF0121126811700021494A74
:103E40001268517000BF47490968891C454A1160D2
:103E500000BF00BF02211268117042490968491C65
:103E6000404A116000BF00BF2921126811703D490E
:103E70000968491C3B4A116000BF00BF2F2112682E
:103E8000117038490968491C364A116000BF66E064
:103E900000BF2721334A1268117032490968491C52
:103EA000304A116000BF00BF00BF00F1140112686A
:103EB0001170090A2B4A1268517000F11401090CA3
:103EC000284A1268917000F11401090E254A1268FF
:103ED000D17000BF23490968091D224A116000BF43
:103EE00000BF2421126811701E490968491C1D4A2F
:103EF000116000BF00BF00BF0121126811700021D6
:103F0000184A12685170174A12689170154A12685F
:103F1000D17000BF13490968091D124A116000BF22
:103F200000BF0321126811700E490968491C0D4A2F
:103F3000116000BF00BF2A21126811700949096889
:103F4000491C084A116000BF00BF2F211268117080
:103F500004490968491C034A116000BF00BF00BF43
:103F600000BF20E444010020206900287ED02069A1
:103F7000007801287AD1216988686178012904D004
:103F800002295DD003295AD1BDE000BF2521FE4A98
:103F900012681170FC490968491CFB4A116000BF96
:103FA00000BF00BF00F1140112681170090AF64A3F
:103FB0001268517000F11401090CF34A12689170F3
:103FC00000F11401090EF04A1268D17000BFEE49E9
:103FD0000968091DEC4A116000BF00BF2221126868
:103FE0001170E9490968491CE74A116000BF00BF28
:103FF000012112681170E4490968491CE24A116004
:1040000000BF00BF042112681170DF490968491C14
:10401000DD4A116000BF00BF282112681170DA4923
:104020000968491CD84A116000BF00BF2F211268DF
:104030001170D5490968491CD34A116000BFC9E015
:1040400000BF2621D04A12681170CF490968491C67
:10405000CD4A116000BF00BF00BF00F1140112681B
:104060001170090AC84A1268517000E0B4E000F10A
:104070001401090CC44A1268917000F11401090E70
:10408000C14A1268D17000BFBF490968091DBE4A04
:10409000116000BF00BF232112681170BA4909687E
:1040A000491CB94A116000BF00BF00BF012112685E
:1040B00011700021B44A1268517000BFB2490968FA
:1040C000891CB14A116000BF00BF05211268117040
:1040D000AD490968491CAC4A116000BF00BF2921E5
:1040E00012681170A8490968491CA74A116000BFED
:1040F00000BF2F2112681170A3490968491CA24A08
:10410000116000BF66E000BF27219F4A126811704E
:104110009D490968491C9C4A116000BF00BF00BF4F
:1041200000F1140112681170090A974A126851705F
:1041300000F11401090C944A1268917000F1140105
:10414000090E914A1268D17000BF8F490968091D94
:104150008D4A116000BF00BF2421126811708A4986
:104160000968491C884A116000BF00BF00BF0121D7
:10417000126811700021844A12685170824A1268D4
:104180009170814A1268D17000BF7F490968091D8A
:104190007D4A116000BF00BF0621126811707A4984
:1041A0000968491C784A116000BF00BF2A211268C3
:1041B000117075490968491C734A116000BF00BF3E
:1041C0002F211268117070490968491C6E4A1160EC
:1041D00000BF00BF00BF00BFB4E3206900287DD04E
:1041E00020690078012879D12169886861780129DE
:1041F00004D0022973D0032972D110E100BF242119
:10420000614A1268117060490968491C5E4A116070
:1042100000BF00BF00BF00F1140112681170090A4D
:10422000594A1268517000F11401090C564A12687B
:10423000917000F11401090E534A1268D17000BF49
:1042400051490968091D504A116000BF00BF25216E
:10425000126811704C490968491C4B4A116000BF33
:1042600000BF00BF00F1140112681170090A464A2C
:104270001268517000F11401090C434A12689170E0
:1042800000F11401090E404A1268D17000BF3E4986
:104290000968091D3C4A116000BF00BF2221126855
:1042A000117039490968491C374A116000BF00BFC5
:1042B00001211268117034490968491C324A1160A1
:1042C00000BF00BF0121126811702F490968491C05
:1042D0002D4A116000BF00BF282102E02FE113E04A
:1042E0002BE11268117028490968491C264A11609F
:1042F00000BF00BF2B211268117023490968491CB7
:10430000214A116000BF18E100BF24211E4A126833
:1043100011701D490968491C1B4A116000BF00BF8C
:1043200000BF00F1140112681170090A164A1268E0
:10433000517000F11401090C134A1268917000F1D8
:104340001401090E104A1268D17000BF0E490968A5
:10435000091D0D4A116000BF00BF262112681170AF
:1043600009490968491C084A116000BF00BF00BF25
:1043700000F1140112681170090A034A12685170A1
:1043800000F11401090C01E044010020FC4A12680C
:10439000917000F11401090EF94A1268D17000BF42
:1043A000F7490968091DF64A116000BF00BF2321C3
:1043B00012681170F2490968491CF14A116000BF86
:1043C00000BF00BF0121126811700021EC4A126881
:1043D000517000BFEA490968891CE94A116000BFB1
:1043E00000BF022112681170E5490968491CE44ABE
:1043F000116000BF00BF292112681170E0490968EF
:10440000491CDF4A116000BF00BF2B2112681170E8
:10441000DB490968491CDA4A116000BF8DE000BF22
:104420002421D74A12681170D5490968491CD44A19
:10443000116000BF00BF00BF00F1140112681170CD
:10444000090ACF4A1268517000F11401090CCC4AD4
:104450001268917000F11401090EC94A1268D170F6
:1044600000BFC7490968091DC54A116000BF00BFE8
:10447000272112681170C2490968491CC04A11609D
:1044800000BF00BF00BF00F1140112681170090ADB
:10449000BB4A1268517000F11401090CB84A126845
:1044A000917000F11401090EB54A1268D17000BF75
:1044B000B3490968091DB24A116000BF00BF242139
:1044C00012681170AE490968491CAD4A116000BFFD
:1044D00000BF00BF0121126811700021A84A1268B4
:1044E0005170A74A12689170A54A1268D17000BF36
:1044F000A3490968091DA24A116000BF00BF03213A
:10450000126811709E490968491C9D4A116000BFDC
:1045100000BF2A211268117099490968491C984AFC
:10452000116000BF00BF2B21126811709449096807
:10453000491C934A116000BF00BF00BF00BF01E2E9
:10454000206900287ED02069007801287AD121696D
:1045500088686178012904D0022974D0032973D1B5
:1045600010E100BF2421864A12681170844909684D
:10457000491C834A116000BF00BF00BF00F1140155
:1045800012681170090A7E4A1268517000F1140114
:10459000090C7B4A1268917000F11401090E784AE7
:1045A0001268D17000BF76490968091D744A11600C
:1045B00000BF00BF25211268117071490968491CAC
:1045C0006F4A116000BF00BF00BF00F11401126804
:1045D0001170090A6A4A1268517000F11401090C3D
:1045E000674A1268917000F11401090E644A12685A
:1045F000D17000BF62490968091D614A116000BF9E
:1046000000BF2221126811705D490968491C5C4A8B
:10461000116000BF00BF012112681170584909687C
:10462000491C574A116000BF00BF04211268117075
:1046300053490968491C524A116000BF00BF282134
:10464000126802E02EE112E02AE111704C4909687B
:10465000491C4B4A116000BF00BF2B21126811702A
:1046600047490968491C464A116000BF18E100BF6C
:104670002421434A1268117041490968491C404A83
:10468000116000BF00BF00BF00F11401126811707B
:10469000090A3B4A1268517000F11401090C384AAA
:1046A0001268917000F11401090E354A1268D17038
:1046B00000BF33490968091D314A116000BF00BFBE
:1046C0002621126811702E490968491C2C4A116074
:1046D00000BF00BF00BF00F1140112681170090A89
:1046E000274A1268517000F11401090C244A12681B
:1046F000917000F11401090E214A1268D17000BFB7
:104700001F490968091D1E4A116000BF00BF23210F
:10471000126811701A490968491C194A116000BFD2
:1047200000BF00BF0121126811700021144A1268F5
:10473000517000BF12490968891C114A116000BFFD
:1047400000BF0521126811700D490968491C0C4A07
:10475000116000BF00BF2921126811700849096863
:10476000491C074A116000BF00BF2B21126811705D
:1047700003490968491C024A116000BF90E000002B
:104780004401002000BF2421724A1268117071494F
:104790000968491C6F4A116000BF00BF00BF00F1EB
:1047A000140112681170090A6A4A1268517000F106
:1047B0001401090C674A1268917000F11401090E86
:1047C000644A1268D17000BF62490968091D614AD4
:1047D000116000BF00BF2721126811705D49096890
:1047E000491C5C4A116000BF00BF00BF00F114010A
:1047F00012681170090A574A1268517000F11401C9
:10480000090C544A1268917000F11401090E514AC2
:104810001268D17000BF4F490968091D4D4A1160E7
:1048200000BF00BF2421126811704A490968491C61
:10483000484A116000BF00BF00BF0121126811701B
:104840000021444A12685170424A12689170414AEC
:104850001268D17000BF3F490968091D3D4A1160C7
:1048600000BF00BF0621126811703A490968491C4F
:10487000384A116000BF00BF2A2112681170354903
:104880000968491C334A116000BF00BF2B21126820
:10489000117030490968491C2E4A116000BF00BFE1
:1048A00000BF00BF4EE000BF00BF002029490968DB
:1048B00008702849096848702649096888702549A0
:1048C0000968C87000BF23480068001D21490860BE
:1048D00000BF37E0A07800F0080068BB60780128CE
:1048E00004D002280ED0032824D117E000BF2D20C9
:1048F00018490968087017480068401C1549086085
:1049000000BF18E000BF2E20124909680870114846
:104910000068401C0F49086000BF0CE000BF2F205A
:104920000C49096808700B480068401C0949086078
:1049300000BF00E000BF00BF04E003E0082000F07B
:104940004BF800BF00BFE06810B1E068FEF7DAFC8A
:10495000002010BD4401002070B5064600213046FD
:1049600000F04CFF80211248FBF78FFC114800211A
:104970000160114908600E4810490860344613E090
:104980002546EC680020E8602846FEF7BBFC54B1E1
:1049900000BF2B2009490968087008480068401CBE
:1049A0000649086000BF00BF002CE9D1002070BD9F
:1049B000F40A0020F40900204001002044010020F6
:1049C000014800787047000048010020002001499C
:1049D000087070474801002001460248017000201D
:1049E00070470000480100200146024850F82100AD
:1049F000704700004C01002010B50446204600F02E
:104A00006FF900F0C7F8FFF7E1FF002010BD0000CC
:104A100070B50546E81C20F003051848046800E05E
:104A2000646824B105F1080021688142F8D974B99D
:104A300000F03EF81148046800E0646824B105F114
:104A4000080021688142F8D30CB9002070BD2946C6
:104A50002046FEF74BFC21460848FEF730FC0020BC
:104A6000606021460648FEF7CDFB294604F10800A8
:104A7000FBF70BFC04F10800E8E7000088010020C8
:104A80008C01002070B50446A4F1080529460648AB
:104A9000FEF715FC29460548FEF7B4FB29460348F6
:104AA000FEF7CFFB70BD00008C01002088010020C4
:104AB00070B50026124805681EE0002411E004EBE2
:104AC0004400104901EBC000407C48B104EB4400B5
:104AD00001EBC000416905F10800814200D102E00C
:104AE000641C082CEBDB00BF2E466D68082C03D13C
:104AF00006F10800FFF7C6FF002DDED170BD0000F3
:104B00008C0100203409002010B580210748FBF7F4
:104B1000BCFB064806490860782009680860002048
:104B20000349096848600349086010BD7407002004
:104B3000880100208C01002010B50446204600F0BA
:104B4000CFF800F027F800F009FFFFF73FFFFFF76D
:104B5000DBFF002010BD00000246002107E001EB52
:104B600081000B4B13F8200000B902E0491C10290A
:104B7000F5DB00BF102901D10020704701EB810057
:104B8000034B03F8202001EB810003EB8000F4E7E6
:104B9000F407002010B54FF4A0710248FBF775FB35
:104BA000002010BDF407002070B505460220FFF775
:104BB000D3FF044624B90620FFF70EFF002070BD86
:104BC00025712046FBE72DE9F04107460024002629
:104BD0000025384600F008FF04466CB9384600F05E
:104BE000BFFA044634B9384600F018FA044624B136
:104BF000042602E0022600E00126D4B10120FFF7DE
:104C0000ABFF05462DB90620FFF7E6FE0020BDE804
:104C1000F081012E04D0022E04D0042E06D103E030
:104C2000AC6003E0AC6001E0AC6000BF00BFAE7000
:104C300002E00D20FFF7D0FE2846E8E770B50546F4
:104C40000320FFF789FF044624B90620FFF7C4FEBE
:104C5000002070BD65602046FBE770B50546042066
:104C6000FFF77AFF044624B90620FFF7B5FE0020BF
:104C700070BD65602046FBE770B505460620FFF76E
:104C80006BFF044624B90620FFF7A6FE002070BD86
:104C900065602046FBE770B505460520FFF75CFF21
:104CA000044624B90620FFF797FE002070BD284671
:104CB000FBF702FB461C3046FFF7AAFE6060284661
:104CC000FBF7FAFA0646324629466068FBF7E8FA2F
:104CD0002846FBF7F1FA002261680A542046E5E70E
:104CE00010B504469C212046FBF7CFFA002010BDEA
:104CF0002DE9F04104460F4600252760201D21685C
:104D000000F066FD201D00F06DFD064657E01F2EE9
:104D100013D101216171D4F8980038B1204601F017
:104D20000DFCE860E86838B1ED6805E0204601F068
:104D300005FC0546C4F8985038E0142E09D0152E0D
:104D400007D0162E05D0172E03D0182E01D0192EFD
:104D500013D101216171D4F8980038B1204601F0D7
:104D600066FEE860E86800B3ED681EE0204601F0EA
:104D70005EFE0546C4F8985017E001216171D4F831
:104D8000980060B1204601F0D9FBE860E86808B1FE
:104D9000ED680AE0201D00F025FD064605E02046EE
:104DA00001F0CCFB0546C4F8985000BF00BFD4F812
:104DB000980000B907E0201D00F014FD0646212EE2
:104DC00001D0202EA3D100BFBDE8F0812DE9F0472E
:104DD00004460F4623A003F023FA39462046FFF786
:104DE00087FFFFF7EDFD20B9D4F89800FFF7B4FD79
:104DF00009E0FFF7E5FD0646FFF7F6FD0546294603
:104E000019A003F00DFAFFF7DBFD28BB00F00CFE44
:104E100000F0FEF8C6B2202E12DD7E2E10DA00F071
:104E2000F7F8814600F0F4F8824600F0F1F800F05F
:104E3000FF084B46524641460CA003F0F1F90AE048
:104E400000F0E6F8804600F0E3F881464246494625
:104E50000BA003F0E5F900BF2046FFF7CDFDBDE84C
:104E6000F08700000A00000025730A000927256367
:104E7000272C2025642C203078253038780A000033
:104E80000925642C203078253038780A000000008D
:104E900038B504460D460B48006868B900200090FC
:104EA0005623094A09A10EA003F0BAF900BF9DF8E4
:104EB00000000028FBD000BF0248006803F0F6FEA7
:104EC000002038BDA00100203CBD00087368656C5F
:104ED0006C20213D2052545F4E554C4C0000000088
:104EE0002825732920617373657274206661696C6B
:104EF00065642061742025733A2564200A0000004F
:104F000038B5054600242A48006868B9002000909A
:104F10006923284A28A12DA003F082F900BF9DF83B
:104F200000000028FBD000BF284602F0F7FA044634
:104F300024B929462DA003F073F938BD1C48006838
:104F4000D0F8A802A04200D1F7E740F24311204672
:104F500002F00CFB48BB16480068D0F8A80260B10C
:104F600013490968D1F8A80202F092FA10490968B9
:104F7000D1F8A802002102F0F1FB50210C48006892
:104F800000F51570FBF781F900200949096881F8DF
:104F9000A4020749096881F8A50205480068C0F81D
:104FA000A8421A49204602F0D9FB00BFC5E700001D
:104FB000A001002049BD00087368656C6C20213D8C
:104FC0002052545F4E554C4C000000002825732998
:104FD00020617373657274206661696C6564206119
:104FE000742025733A2564200A00000066696E73F8
:104FF000683A2063616E206E6F742066696E64206B
:105000006465766963653A2025730A00914E00084D
:105010000148006870470000F40900202DE9F041C4
:1050200006461248056808E031462868FBF74BF948
:1050300010B92846BDE8F0810C350D48006885425E
:10504000F2D30C4804680CE03046FBF735F907460C
:105050003A4631466068FBF744F908B9201DE9E794
:105060002468002CF0D10020E4E70000A401002017
:10507000A80100209C010020024A1060024A116031
:1050800070470000A4010020A80100201FB51D49A1
:105090001D48FFF7F1FF1D491D4800F057F84FF478
:1050A0002B7003F065F91B4908600846006830B9A9
:1050B00019A003F0B5F84FF0FF3004B010BD4FF465
:1050C0002B7114480068FBF7E0F800231A4618A17A
:1050D0001048006803F0B0FD0A2014214FF400626C
:1050E000154BCDE90032CDE902100023134A14A17B
:1050F000154804F0EBFC044614B9134804F0E6FD2F
:105100000020DAE714C300086CC2000844C300089A
:1051100034C30008A00100206E6F206D656D6F72B2
:105120007920666F72207368656C6C0A000000005D
:105130007368727800000000F40B0020BD51000875
:10514000747368656C6C0000740B0020024A106078
:10515000024A116070470000AC010020B00100203D
:105160002DE9F04106461248056808E031462868F6
:10517000FBF7A9F810B92846BDE8F08110350D48B5
:1051800000688542F2D30C4804680CE03046FBF717
:1051900093F807463A4631466068FBF7A2F808B92B
:1051A000201DE9E72468002CF0D10020E4E700008E
:1051B000AC010020B0010020900100201CB50120AE
:1051C000F549096881F82100F348006800F5DC70B2
:1051D000FFF7B2FCF1A003F023F8EF480068D0F825
:1051E000A802002828D101F0B5FEEB490968C1F8F2
:1051F000A802E9480068D0F8A80270B90020009021
:105200004FF49D73E74AE8A1EBA003F009F800BF53
:105210009DF800000028FBD000BFDF490968D1F8E5
:10522000A802ED4902F09AFADB490968D1F8A80210
:1052300040F2431102F09AF9C4E24FF0FF31D64830
:10524000006803F05DFD00B1BCE2ADE29DF8040032
:105250001B2805D10120D049096881F82000A3E26C
:10526000CD48006890F8200001280FD19DF8040077
:105270005B2805D10220C849096881F8200093E223
:105280000020C549096881F82000C6E0C2480068CE
:1052900090F820000228F8D10020BF49096881F861
:1052A00020009DF80400412836D1BB480068408C9E
:1052B000002807DDB8480068408C401EB6490968E0
:1052C000488404E00020B449096848846CE2B2488C
:1052D0000068408C00EB8002AF480068263000EB8D
:1052E00002115022AC48006800F51570FAF7B4FFBF
:1052F000A948006800F51570FAF7DEFFC0B2A649AC
:10530000096881F8A402A449096881F8A502A248A5
:10531000006805F051FA47E29DF80400422842D1A6
:105320009D480068418C9C480068808C401E8142EA
:1053300007DA99480068408C401C974909684884FE
:105340000CE095480068808C38B193480068808CE8
:10535000401E91490968488400E025E28E480068B3
:10536000408C00EB80028C480068263000EB021174
:1053700050228948006800F51570FAF76DFF8648DD
:10538000006800F51570FAF797FFC0B28249096806
:1053900081F8A4028049096881F8A5027E48006866
:1053A00005F00AFA00E29DF80400442811D17A4879
:1053B000006890F8A50258B188A002F031FF764845
:1053C000006890F8A502401E7349096881F8A5029B
:1053D000EAE19DF8040043281FD16F48006890F867
:1053E000A5026D49096891F8A412884214DA6A4846
:1053F000006890F8A5226848006800F51570815C87
:1054000077A002F00DFF6448006890F8A502401CE8
:105410006149096881F8A502C6E19DF804000D28DC
:1054200017D15D49096801236A46D1F8A802002115
:1054300002F032F9012809D19DF8000010B90D20C1
:10544000019005E09DF80000019001E00D20019021
:10545000CEE09DF80400092821D1002403E05FA0DC
:1054600002F0DEFE641C4C48006890F8A502A042E1
:10547000F5DC4948006800F5157005F085F94648E7
:10548000006800F51570FAF717FFC0B242490968C5
:1054900081F8A4024049096881F8A50284E19DF8D9
:1054A00004007F2803D09DF80400082873D13A48EF
:1054B000006890F8A50200B976E13748006890F8D6
:1054C000A402401E3449096881F8A40232480068E9
:1054D00090F8A502401E3049096881F8A5022E48BF
:1054E000006890F8A4022C49096891F8A512884236
:1054F00043DD294B1B6893F8A432274D2D6895F89E
:10550000A5525A1B244B1B6893F8A5325B1C224DF5
:105510002D6805F5157559191F4B1B6893F8A55291
:105520001D4B1B6803F51573E81803F0B9F800214B
:105530001948006890F8A4221748006800F5157013
:1055400081541548006890F8A5221348006800F5BA
:105550001570111823A002F063FE0F48006890F840
:10556000A54203E01DA002F05BFE641C0A4800682F
:1055700090F8A402A042F5DA0CE01CA002F050FE64
:1055800000210548006890F8A4220348006800F54F
:105590001570815408E12BE0A001002066696E734C
:1055A000683E3E0089BD00087368656C6C2D3E64E2
:1055B000657669636500000028257329206173738F
:1055C000657274206661696C65642061742025735E
:1055D0003A2564200A000000914E000808000000EF
:1055E000256300000825732020080000082008001B
:1055F0009DF804000D2803D09DF804000A2835D139
:105600007148006805F0F2F83B216F48006890F897
:10561000A4226D48006800F5157081546A4800683E
:1056200090F8A40248B16848016801F51571006856
:1056300000F5DC70FFF7CAFB03E0AFF2680002F090
:10564000EFFDAFF2A80002F0EBFD50215E480068CC
:1056500000F51570FAF719FE00205B49096881F81A
:10566000A4025949096881F8A502A9E056480068D2
:1056700090F8A402502804DB00205349096881F8FF
:10568000A4025148006890F8A5024F49096891F8B2
:10569000A41288424CDA4C4B1B6893F8A4324A4D52
:1056A0002D6895F8A5525A1B474B1B6893F8A552D5
:1056B000454B1B6803F51573E918434B1B6893F8BA
:1056C000A5325B1C404D2D6805F51575581902F083
:1056D000E7FF9DF804103C48006890F8A5223A487E
:1056E000006800F5157081543748006890F8210073
:1056F00000F0010058B13448006890F8A522324803
:10570000006800F51570111830A002F089FD2E48D0
:10571000006890F8A54204E0AFF2401002F080FD6E
:10572000641C2948006890F8A402A042F4DC17E049
:105730009DF804202448006890F8A41222480068CC
:1057400000F5157042542048006890F8210000F0E0
:10575000010028B19DF80410AFF27C1002F060FD4A
:10576000002001901848006890F8A402401C1649D7
:10577000096881F8A4021448006890F8A502401C4A
:105780001149096881F8A5020F48006890F8A40241
:10579000502808DB00200C49096881F8A4020A4956
:1057A000096881F8A50200BF07490968012301AA19
:1057B000D1F8A802002101F06FFF01283FF446ADA7
:1057C00000BF00BF39E50000A001002025730000E4
:1057D00070B504460D4694212046FAF756FDC4F8EC
:1057E000905070BD10B50446607810B10020607014
:1057F00002E0204605F0E4FB207A10BD70B50446B7
:105800000D46002C61D02078132808D02078152868
:1058100005D02078162802D020781A2804D1082133
:105820002069FFF7EBFF0CE02078192805D125B19E
:1058300000212069FFF7E2FF03E029462069FFF716
:10584000DDFF0021E068FFF7D9FFA078042802D02F
:10585000A0782843A070206920B12069407860704A
:10586000002070BD2078012861D1A07800F00100EF
:1058700060B3A6684EB3707C0F2821D2DFE800F039
:1058800020081A0B0C190F101B13141C15161D00E1
:105890000020607018E000BF0120607014E000BFBD
:1058A0000220607010E000BF00BF00BF03206070E6
:1058B0000AE000BF00BF00BF00BF0320607003E02C
:1058C0000320FFF789F800BF00BF44E0A07800F094
:1058D000020058B3A6684EB3307A0F2821D2DFE811
:1058E00000F020081A0B0C190F101B13141C1516AE
:1058F0001D000020607018E000BF0120607014E0FF
:1059000000BF0220607010E000BF00BF00BF032096
:1059100060700AE000BF00BF00BF00BF03206070DE
:1059200003E00320FFF758F800BF00BF13E0207822
:10593000022802D1012060700DE02078032808D0F1
:105940002078042805D02078052802D02078062861
:1059500001D103206070002083E7000010B5C02152
:105960000248FAF792FC002010BD00003409002024
:105970002DE9F04106460F464FF0FF35002418E0B0
:1059800004EB4401174A02EBC10010223146FAF73A
:10599000A8FC18B94FF0FF30BDE8F08104EB4400DB
:1059A000104901EBC000407C10B9681C00B92546C5
:1059B000641C082CE4DB681C10B94FF0FF30EBE7E7
:1059C00005EB4501074A02EBC10010223146FAF708
:1059D00067FC05EB4501034A02EBC1014F74284601
:1059E000DAE700003409002070B5054600240BE01A
:1059F00004EB44010B4A02EBC10010222946FAF7DE
:105A000070FC00B902E0641C082CF1DB00BF082C1C
:105A100001D1002070BD04EB4400024901EBC0003D
:105A2000F8E700003409002010B50F480F4908605E
:105A30000F48104908600BE00E48006804780D48D4
:105A40000068401C0B4908600B4951F8240080474E
:105A5000084800680649401A04D406480068401AFD
:105A60008028E9DB10BD0000F4090020940100202B
:105A7000F40A00209801002038BC000810B5144832
:105A8000006800F0020010B112A002F0C9FB10483B
:105A9000006800F0804088B10D48C01E007808B151
:105AA000FDF732FB0A48001F007808B100F08CFABD
:105AB0000748801E008808B105F0AEFB0448006866
:105AC00000F0004010B109A002F0AAFB10BD0000D8
:105AD0002CED00E06661696C656420766563746F27
